{"abi":[{"type":"function","name":"createLinearSubStreamsWithDuration","inputs":[{"name":"streamId","type":"uint256","internalType":"uint256"},{"name":"lockupLinear","type":"address","internalType":"contract ISablierV2LockupLinear"},{"name":"recipients","type":"address[]","internalType":"address[]"},{"name":"weightsPercent","type":"uint8[]","internalType":"uint8[]"},{"name":"cliffTime","type":"uint40","internalType":"uint40"},{"name":"totalDuration","type":"uint40","internalType":"uint40"}],"outputs":[{"name":"","type":"uint256[]","internalType":"uint256[]"}],"stateMutability":"nonpayable"},{"type":"function","name":"getSubStream","inputs":[{"name":"streamId","type":"uint256","internalType":"uint256"},{"name":"receiver","type":"address","internalType":"address"}],"outputs":[{"name":"","type":"uint256","internalType":"uint256"}],"stateMutability":"view"},{"type":"function","name":"initWrapper","inputs":[{"name":"wrapper","type":"address","internalType":"address"}],"outputs":[],"stateMutability":"nonpayable"},{"type":"function","name":"withdraw","inputs":[{"name":"lockupLinear","type":"address","internalType":"contract ISablierV2LockupLinear"},{"name":"subStreamId","type":"uint256","internalType":"uint256"},{"name":"to","type":"address","internalType":"address"},{"name":"amount","type":"uint128","internalType":"uint128"}],"outputs":[],"stateMutability":"nonpayable"}],"bytecode":{"object":"0x608060405234801561001057600080fd5b50611c9a806100206000396000f3fe608060405234801561001057600080fd5b506004361061004c5760003560e01c80631662f426146100515780638f6d354b14610077578063b956b45f146100ce578063c0eb44aa146100e1575b600080fd5b61006461005f36600461153b565b610101565b6040519081526020015b60405180910390f35b6100cc61008536600461156b565b600080547fffffffffffffffffffffffff00000000000000000000000000000000000000001673ffffffffffffffffffffffffffffffffffffffff92909216919091179055565b005b6100cc6100dc3660046115ad565b61018f565b6100f46100ef36600461165f565b6106c9565b60405161006e9190611711565b60008083116101575760405162461bcd60e51b815260206004820181905260248201527f53747265616d206964206d7573742062652067726561746572207468616e203060448201526064015b60405180910390fd5b50600082815260026020908152604080832073ffffffffffffffffffffffffffffffffffffffff851684529091529020545b92915050565b600083815260036020908152604080832054808452600283528184203385529092529091205484146102035760405162461bcd60e51b815260206004820152601160248201527f496e76616c696420726571756573746572000000000000000000000000000000604482015260640161014e565b6040517fd975dfed0000000000000000000000000000000000000000000000000000000081526004810185905260009073ffffffffffffffffffffffffffffffffffffffff87169063d975dfed90602401602060405180830381865afa158015610271573d6000803e3d6000fd5b505050506040513d601f19601f820116820180604052508101906102959190611755565b9050806fffffffffffffffffffffffffffffffff16836fffffffffffffffffffffffffffffffff16111561030b5760405162461bcd60e51b815260206004820152601d60248201527f457863656564696e6720776974686472617761626c6520616d6f756e74000000604482015260640161014e565b6040517ffdd46d60000000000000000000000000000000000000000000000000000000008152600481018690523060248201526fffffffffffffffffffffffffffffffff8416604482015273ffffffffffffffffffffffffffffffffffffffff87169063fdd46d6090606401600060405180830381600087803b15801561039157600080fd5b505af11580156103a5573d6000803e3d6000fd5b50506000546040517fde0e9a3e0000000000000000000000000000000000000000000000000000000081526fffffffffffffffffffffffffffffffff8716600482015273ffffffffffffffffffffffffffffffffffffffff909116925063de0e9a3e91506024016020604051808303816000875af115801561042b573d6000803e3d6000fd5b505050506040513d601f19601f8201168201806040525081019061044f9190611772565b506040517feac8f5b80000000000000000000000000000000000000000000000000000000081526004810183905260009073ffffffffffffffffffffffffffffffffffffffff88169063eac8f5b890602401602060405180830381865afa1580156104be573d6000803e3d6000fd5b505050506040513d601f19601f820116820180604052508101906104e2919061179b565b6040517fd975dfed0000000000000000000000000000000000000000000000000000000081526004810185905290915060009073ffffffffffffffffffffffffffffffffffffffff89169063d975dfed90602401602060405180830381865afa158015610553573d6000803e3d6000fd5b505050506040513d601f19601f820116820180604052508101906105779190611755565b9050806fffffffffffffffffffffffffffffffff16856fffffffffffffffffffffffffffffffff1611156105ed5760405162461bcd60e51b815260206004820152601d60248201527f457863656564696e6720776974686472617761626c6520616d6f756e74000000604482015260640161014e565b6040517ffdd46d60000000000000000000000000000000000000000000000000000000008152600481018590523060248201526fffffffffffffffffffffffffffffffff8616604482015273ffffffffffffffffffffffffffffffffffffffff89169063fdd46d6090606401600060405180830381600087803b15801561067357600080fd5b505af1158015610687573d6000803e3d6000fd5b506106bf9250505073ffffffffffffffffffffffffffffffffffffffff8316876fffffffffffffffffffffffffffffffff881661106d565b5050505050505050565b60606106d585856110ff565b85841461074a5760405162461bcd60e51b815260206004820152602860248201527f526563697069656e747320616e64207765696768742073697a657320646f206e60448201527f6f74206d61746368000000000000000000000000000000000000000000000000606482015260840161014e565b600a86111561079b5760405162461bcd60e51b815260206004820152601360248201527f546f6f206d616e7920726563697069656e747300000000000000000000000000604482015260640161014e565b6040517f894e9a0d000000000000000000000000000000000000000000000000000000008152600481018a905260009073ffffffffffffffffffffffffffffffffffffffff8a169063894e9a0d906024016101a060405180830381865afa15801561080a573d6000803e3d6000fd5b505050506040513d601f19601f8201168201806040525081019061082e91906118c3565b905064ffffffffff841615801561084a575064ffffffffff8316155b15610880578060200151816040015161086391906119cd565b935080602001518160c0015161087991906119cd565b92506109fa565b8060200151816040015161089491906119cd565b64ffffffffff168464ffffffffff16101561093d5760405162461bcd60e51b815260206004820152604a60248201527f436c6966662074696d65206f66206368696c642073747265616d206d7573742060448201527f6265206c6174657220696e2074696d65207468616e20636c6966662074696d6560648201527f206f6620706172656e7400000000000000000000000000000000000000000000608482015260a40161014e565b80602001518160c0015161095191906119cd565b64ffffffffff168364ffffffffff1610156109fa5760405162461bcd60e51b815260206004820152604260248201527f4475726174696f6e206f66206368696c642073747265616d2063616e6e6f742060448201527f626520736d616c6c6572207468616e206475726174696f6e206f66207061726560648201527f6e74000000000000000000000000000000000000000000000000000000000000608482015260a40161014e565b6040517f6d0cee75000000000000000000000000000000000000000000000000000000008152600481018b9052309073ffffffffffffffffffffffffffffffffffffffff8b1690636d0cee7590602401602060405180830381865afa158015610a67573d6000803e3d6000fd5b505050506040513d601f19601f82011682018060405250810190610a8b919061179b565b73ffffffffffffffffffffffffffffffffffffffff1614610b145760405162461bcd60e51b815260206004820152603460248201527f526563697069656e74206f662070726f76696465642073747265616d2069732060448201527f6e6f742063757272656e7420636f6e7472616374000000000000000000000000606482015260840161014e565b60005b60ff8116881115611004576000898960ff8416818110610b3957610b396119f2565b9050602002016020810190610b4e919061156b565b73ffffffffffffffffffffffffffffffffffffffff1603610bb15760405162461bcd60e51b815260206004820152601d60248201527f43616e6e6f742073656e6420746f206e756c6c20726563697069656e74000000604482015260640161014e565b6000606488888460ff16818110610bca57610bca6119f2565b9050602002016020810190610bdf9190611a21565b61014085015151610bf39160ff1690611a44565b610bfd9190611a78565b6000546040517fea598cb00000000000000000000000000000000000000000000000000000000081526fffffffffffffffffffffffffffffffff8316600482015291925073ffffffffffffffffffffffffffffffffffffffff169063ea598cb0906024016020604051808303816000875af1158015610c80573d6000803e3d6000fd5b505050506040513d601f19601f82011682018060405250810190610ca49190611772565b506000546040517f70a082310000000000000000000000000000000000000000000000000000000081523060048201526fffffffffffffffffffffffffffffffff83169173ffffffffffffffffffffffffffffffffffffffff16906370a0823190602401602060405180830381865afa158015610d25573d6000803e3d6000fd5b505050506040513d601f19601f82011682018060405250810190610d499190611772565b14610d965760405162461bcd60e51b815260206004820152601b60248201527f4661696c656420746f206d696e74207772617070656420636f696e0000000000604482015260640161014e565b6000546040517f095ea7b300000000000000000000000000000000000000000000000000000000815273ffffffffffffffffffffffffffffffffffffffff8d811660048301526fffffffffffffffffffffffffffffffff841660248301529091169063095ea7b3906044016020604051808303816000875af1158015610e20573d6000803e3d6000fd5b505050506040513d601f19601f82011682018060405250810190610e449190611ace565b506040805161010081018252338152306020808301919091526fffffffffffffffffffffffffffffffff8416828401526000805473ffffffffffffffffffffffffffffffffffffffff90811660608086019190915288015115156080850152600160a08501528451808601865264ffffffffff8c811682528b168185015260c08501528451808601865282815292830182905260e084019290925292517fab167ccc000000000000000000000000000000000000000000000000000000008152908e169163ab167ccc91610f1b9190600401611ae9565b6020604051808303816000875af1158015610f3a573d6000803e3d6000fd5b505050506040513d601f19601f82011682018060405250810190610f5e9190611772565b60008e81526002602052604081209192508291908d8d60ff8816818110610f8757610f876119f2565b9050602002016020810190610f9c919061156b565b73ffffffffffffffffffffffffffffffffffffffff16815260208082019290925260409081016000908120939093558f835260018083528184208054918201815584528284200184905592825260039052208c90555080610ffc81611bc4565b915050610b17565b5060008a8152600160209081526040918290208054835181840281018401909452808452909183018282801561105957602002820191906000526020600020905b815481526020019060010190808311611045575b505050505091505098975050505050505050565b6040805173ffffffffffffffffffffffffffffffffffffffff8416602482015260448082018490528251808303909101815260649091019091526020810180517bffffffffffffffffffffffffffffffffffffffffffffffffffffffff167fa9059cbb000000000000000000000000000000000000000000000000000000001790526110fa908490611260565b505050565b6000805b60ff811683111561120b57600084848360ff16818110611125576111256119f2565b905060200201602081019061113a9190611a21565b60ff16101580156111775750606484848360ff1681811061115d5761115d6119f2565b90506020020160208101906111729190611a21565b60ff16105b6111c35760405162461bcd60e51b815260206004820152600e60248201527f57656967687420696e76616c6964000000000000000000000000000000000000604482015260640161014e565b83838260ff168181106111d8576111d86119f2565b90506020020160208101906111ed9190611a21565b6111f79083611be3565b91508061120381611bc4565b915050611103565b5060648160ff1611156110fa5760405162461bcd60e51b815260206004820152601260248201527f5765696768742073756d20696e76616c69640000000000000000000000000000604482015260640161014e565b60006112c2826040518060400160405280602081526020017f5361666545524332303a206c6f772d6c6576656c2063616c6c206661696c65648152508573ffffffffffffffffffffffffffffffffffffffff166113559092919063ffffffff16565b90508051600014806112e35750808060200190518101906112e39190611ace565b6110fa5760405162461bcd60e51b815260206004820152602a60248201527f5361666545524332303a204552433230206f7065726174696f6e20646964206e60448201527f6f74207375636365656400000000000000000000000000000000000000000000606482015260840161014e565b6060611364848460008561136c565b949350505050565b6060824710156113e45760405162461bcd60e51b815260206004820152602660248201527f416464726573733a20696e73756666696369656e742062616c616e636520666f60448201527f722063616c6c0000000000000000000000000000000000000000000000000000606482015260840161014e565b6000808673ffffffffffffffffffffffffffffffffffffffff16858760405161140d9190611c20565b60006040518083038185875af1925050503d806000811461144a576040519150601f19603f3d011682016040523d82523d6000602084013e61144f565b606091505b50915091506114608783838761146b565b979650505050505050565b606083156114e75782516000036114e05773ffffffffffffffffffffffffffffffffffffffff85163b6114e05760405162461bcd60e51b815260206004820152601d60248201527f416464726573733a2063616c6c20746f206e6f6e2d636f6e7472616374000000604482015260640161014e565b5081611364565b61136483838151156114fc5781518083602001fd5b8060405162461bcd60e51b815260040161014e9190611c3c565b73ffffffffffffffffffffffffffffffffffffffff8116811461153857600080fd5b50565b6000806040838503121561154e57600080fd5b82359150602083013561156081611516565b809150509250929050565b60006020828403121561157d57600080fd5b813561158881611516565b9392505050565b6fffffffffffffffffffffffffffffffff8116811461153857600080fd5b600080600080608085870312156115c357600080fd5b84356115ce81611516565b93506020850135925060408501356115e581611516565b915060608501356115f58161158f565b939692955090935050565b60008083601f84011261161257600080fd5b50813567ffffffffffffffff81111561162a57600080fd5b6020830191508360208260051b850101111561164557600080fd5b9250929050565b64ffffffffff8116811461153857600080fd5b60008060008060008060008060c0898b03121561167b57600080fd5b88359750602089013561168d81611516565b9650604089013567ffffffffffffffff808211156116aa57600080fd5b6116b68c838d01611600565b909850965060608b01359150808211156116cf57600080fd5b506116dc8b828c01611600565b90955093505060808901356116f08161164c565b915060a08901356117008161164c565b809150509295985092959890939650565b6020808252825182820181905260009190848201906040850190845b818110156117495783518352928401929184019160010161172d565b50909695505050505050565b60006020828403121561176757600080fd5b81516115888161158f565b60006020828403121561178457600080fd5b5051919050565b805161179681611516565b919050565b6000602082840312156117ad57600080fd5b815161158881611516565b604051610160810167ffffffffffffffff81118282101715611803577f4e487b7100000000000000000000000000000000000000000000000000000000600052604160045260246000fd5b60405290565b80516117968161164c565b8051801515811461179657600080fd5b60006060828403121561183657600080fd5b6040516060810181811067ffffffffffffffff82111715611880577f4e487b7100000000000000000000000000000000000000000000000000000000600052604160045260246000fd5b806040525080915082516118938161158f565b815260208301516118a38161158f565b602082015260408301516118b68161158f565b6040919091015292915050565b60006101a082840312156118d657600080fd5b6118de6117b8565b6118e78361178b565b81526118f560208401611809565b602082015261190660408401611809565b604082015261191760608401611814565b606082015261192860808401611814565b608082015261193960a0840161178b565b60a082015261194a60c08401611809565b60c082015261195b60e08401611814565b60e082015261010061196e818501611814565b90820152610120611980848201611814565b9082015261014061199385858301611824565b908201529392505050565b7f4e487b7100000000000000000000000000000000000000000000000000000000600052601160045260246000fd5b64ffffffffff8281168282160390808211156119eb576119eb61199e565b5092915050565b7f4e487b7100000000000000000000000000000000000000000000000000000000600052603260045260246000fd5b600060208284031215611a3357600080fd5b813560ff8116811461158857600080fd5b6fffffffffffffffffffffffffffffffff818116838216028082169190828114611a7057611a7061199e565b505092915050565b60006fffffffffffffffffffffffffffffffff80841680611ac2577f4e487b7100000000000000000000000000000000000000000000000000000000600052601260045260246000fd5b92169190910492915050565b600060208284031215611ae057600080fd5b61158882611814565b60006101408201905073ffffffffffffffffffffffffffffffffffffffff8084511683528060208501511660208401526fffffffffffffffffffffffffffffffff6040850151166040840152806060850151166060840152506080830151611b55608084018215159052565b5060a0830151611b6960a084018215159052565b5060c0830151611b9060c0840182805164ffffffffff908116835260209182015116910152565b5060e0830151805173ffffffffffffffffffffffffffffffffffffffff1661010084015260208101516101208401526119eb565b600060ff821660ff8103611bda57611bda61199e565b60010192915050565b60ff81811683821601908111156101895761018961199e565b60005b83811015611c17578181015183820152602001611bff565b50506000910152565b60008251611c32818460208701611bfc565b9190910192915050565b6020815260008251806020840152611c5b816040850160208701611bfc565b601f017fffffffffffffffffffffffffffffffffffffffffffffffffffffffffffffffe016919091016040019291505056fea164736f6c6343000817000a","linkReferences":{}},"methodIdentifiers":{"createLinearSubStreamsWithDuration(uint256,address,address[],uint8[],uint40,uint40)":"c0eb44aa","getSubStream(uint256,address)":"1662f426","initWrapper(address)":"8f6d354b","withdraw(address,uint256,address,uint128)":"b956b45f"},"id":91}